:100000000C9434000C943E000C943E000C943E0082
:100010000C943E000C943E000C943E000C943E0068
:100020000C943E000C943E000C943E000C943E0058
:100030000C943E000C943E000C943E000C943E0048
:100040000C943E000C943E000C943E000C943E0038
:100050000C943E000C943E000C943E000C943E0028
:100060000C943E000C943E0011241FBECFEFD8E04C
:10007000DEBFCDBF0E9461000C9466000C940000AE
:100080000E944D0081E00E9450000E94570080E0D5
:100090000E9450000E945700F5CF80E284B9089575
:1000A000882319F080E285B9089515B808952FEFD7
:1000B00083ED90E3215080409040E1F700C00000C4
:1000C00008950E94400080E090E00895F894FFCFEA
:00000001FF
